:100000000C9467040C948F040C948F040C948F044C
:100010000C948F040C948F040C948F040C948F0414
:100020000C948F040C948F040C948F040C94E314A0
:100030000C948F040C948F040C948F040C948F04F4
:100040000C94D7160C948F040C94351A0C94671AE0
:100050000C948F040C948F040C948F040C948F04D4
:100060000C94B6130C948F0407634236B79BD8A741
:100070001A39685618AEBAAB558C1D3CB7CC5763CD
:10008000BD6DEDFD753EF6177231BF000000803F7B
:1000900008000000BE922449123EABAAAA2ABECD97
:1000A000CCCC4C3E00000080BEABAAAAAA3E000009
:1000B0000000BF000000803F000000000008417801
:1000C000D3BB4387D1133D190E3CC3BD4282AD2B38
:1000D0003E68EC8276BED98FE1A93E4C80EFFFBE30
:1000E00001C4FF7F3F000000000029003A200041CA
:1000F000003A200044005600202F20003A20002023
:100100004952515F002050574D003A200056616C13
:100110007565206F6E2070696E20440044004100B8
:100120002020494E50555400204F555450555400EE
:100130004C4F5720004849474800496E76616C692A
:10014000642070696E206E756D6265722100576162
:10015000726E696E673A2070696E206973206E6FE7
:10016000742073657420746F20696E70757400520A
:1001700065736574202E2E2E004C6F6164656420BB
:1001800073746174652066726F6D20454550524FDF
:100190004D00536176656420737461746520746FDB
:1001A00020454550524F4D00206973206E6F7720D7
:1001B0004F55545055540050696E200020697320EB
:1001C0006E6F7720494E5055540050696E20004E96
:1001D000657720736572766F2076616C7565206F28
:1001E0006E2070696E20006D73002064656C61790B
:1001F000203D2000436C6F636B696E672070696EF1
:10020000733A200053746F7070696E6720636C6F6F
:10021000636B206F6E2070696E20006D7300207715
:100220006974682064656C6179206F662000436C96
:100230006F636B696E672070696E20002000436CED
:100240006F636B73206172652073746F7070656487
:100250002E2000456163682070696E2077696C6CA0
:100260002062652062726965666C7920736574200E
:10027000746F206F75747075742C20666C69707063
:1002800065642073746174652C20616E64207468E9
:10029000656E20726573746F726564005374617269
:1002A00074696E67207377656570206F6620616C76
:1002B0006C2070696E7320696E2073657175656E50
:1002C00063653A0020646F6573206E6F74207375E8
:1002D00070706F72742050574D206F757470757404
:1002E0000050696E20004E657720616E616C6F670B
:1002F0002076616C7565206F6E2070696E200064D9
:100300006F6E65002062797465732E2E2E2E7468D0
:100310006973206D61792074616B652061206D695E
:100320006E7574652E2E2E0045726173696E67209E
:100330000020627974657300466C6173682073698C
:100340007A652069732000206279746573004545E1
:1003500050524F4D2073697A6520697320002062E6
:1003600079746573206672656500206F662000529F
:10037000414D200020566F6C74732C202B2F2D3193
:100380003025207065722063686970200020566FE8
:100390006C74732C206261736564206F6E20612021
:1003A0006E6F6D696E616C20696E7465726E616CE2
:1003B000207265666572656E6365206F6620004E0B
:1003C0006F7420737570706F72746564206F6E2027
:1003D000746869732063686970002743004E6F7406
:1003E00020737570706F72746564206F6E2074680E
:1003F0006973206368697000207365636F6E64734E
:10040000005265626F6F74696E672E2E2E003E205B
:10041000004D687A0043505520697320736574203D
:10042000746F200020616E616C6F672070696E735D
:100430002E00206469676974616C2070696E732096
:10044000616E64200044657669636520686173208D
:10045000004D696E695069726174653A2076302E7C
:100460003320282053756E204465632032302030BD
:10047000393A30363A3037203230313520292000B1
:100480003A20004E65772076616C7565206F6E208E
:1004900070696E20002A202D205265626F6F7400F3
:1004A00065202D20457261736520454550524F4DA2
:1004B0000075202D2053686F772073797374656DF4
:1004C00020757074696D6520286F7220636C6F638E
:1004D0006B290066202D2053686F77206672656552
:1004E000206D656D6F72790074202D2053686F77D1
:1004F0002041565220696E7465726E616C2074657D
:100500006D70657261747572652072656164696E83
:10051000670076202D2053686F7720415652205671
:1005200043432072656164696E67007A202D2073F1
:10053000657420616C6C20706F72747320746F200E
:10054000696E70757420616E64206C6F770079201D
:100550002D206C6F6164206C61737420636F6E6614
:1005600069672066726F6D20656570726F6D0078C7
:10057000202D20736176652063757272656E74201C
:10058000636F6E66696720746F20656570726F6D4A
:100590000077202320232023202D205772697465A3
:1005A0002069326320627974657320746F206163FF
:1005B000746976652064657669636500722023201E
:1005C0002D205265616420693263206E2062797447
:1005D00065732066726F6D2061637469766520644F
:1005E00065766963650023202D2053657420693288
:1005F000632064657669636520616374697665204C
:1006000078200069202D205363616E2069326320B9
:10061000646576696365206164647265737365738C
:10062000006920322072203130202D2053776974E8
:10063000636820746F20493243206465766963657E
:10064000203220616E642072656164203130206246
:100650007974657300732035203930202D2053655F
:100660007420536572766F206F6E2050696E20443F
:100670003520746F203930C2B0005C41322F4133D5
:10068000202D205365742050696E20413220746FF4
:10069000206C6F772C2050696E20413320746F20BE
:1006A000686967682028616E6420626F74682074CE
:1006B0006F206F7574707574290073202D20536539
:1006C0007420736572766F2076616C7565006720A3
:1006D0002D2053657420616E616C6F6720287077E0
:1006E0006D292076616C75650063202D205365743B
:1006F00020706F727420746F20636C6F636B20685E
:1007000069676820616E64206C6F77207769746810
:1007100020676976656E2064656C61790024202D00
:1007200020446F20612070696E20737765657000CA
:100730005E202D20536574206120706F7274204CF0
:100740004F572D484947482D4C4F5720286F6E650D
:1007500020636C6F636B29005C202D20536574202F
:100760006120706F727420746F204C4F5720286383
:100770006C6F636B20646F776E29002F202D2053E0
:100780006574206120706F727420746F204849472F
:10079000482028636C6F636B20757029003E202D04
:1007A00020536574206120706F7274206173204F34
:1007B0005554505554003C202D2053657420612021
:1007C000706F727420617320494E5055540071202F
:1007D0002D2053686F7720616C6C20706F727420CD
:1007E00076616C756573202620646972656374692F
:1007F0006F6E732028717569636B290070202D203E
:1008000053686F7720616C6C20706F727420766112
:100810006C756573202620646972656374696F6EF8
:100820007300682F3F202D2053686F77207468690C
:10083000732068656C70003D3D3D3D3D3D3D3D3D57
:100840003D3D3D3D3D3D3D3D3D3D3D3D3D3D3D3DD8
:100850003D004C495354204F4620535550504F5261
:1008600054454420434F4D4D414E44530000000039
:10087000080002010000030407000000000000005F
:100880000001020408102040800102040810200129
:1008900002040810200404040404040404020202F4
:1008A00002020203030303030300000000230026E7
:1008B00000290000000000250028002B0000000097
:1008C00000240027002A0000BE0AD412971A11241F
:1008D0001FBECFEFD8E0DEBFCDBF12E0A0E0B1E099
:1008E000EEE6F4E402C005900D92A839B107D9F7FD
:1008F00025E0A8E9B2E001C01D92A13CB207E1F7F2
:1009000018E0CEECD8E004C02297FE010E94FD2141
:10091000C83CD107C9F70E94DB1A0C9435220C940D
:100920000000FC01EB56F74FE491F0E0EE0FFF1FE3
:10093000E354F74FA591B4912C91FC01EF57F74F79
:10094000E4912E23822F90E00895682F80E295E0B5
:100950000C942A1BCF93DF93EC018991882319F023
:100960000E94A504FACFDF91CF9108951F93CF93F2
:10097000DF93182F8BE091E00E94AA04C8E0D0E832
:100980008D2F812311F081E301C080E30E94A50433
:10099000D695C150A9F7DF91CF911F910895CF93BC
:1009A000DF93EC0186E191E00E94AA04FE01A4E03D
:1009B000F695E795AA95E1F7EF70FF27E65CFE4F05
:1009C00080810E94A504FE01EF70FF27E65CFE4FC8
:1009D0008081DF91CF910C94A504AF92BF92CF920A
:1009E000DF92EF92FF920F931F93CF93DF9300D08C
:1009F00000D0CDB7DEB78B015A01BC0180E295E093
:100A00000E94281B6801EE24D7FCE094FE2C1A14E7
:100A10001B040CF5B501882777FD8095982F0E945F
:100A2000131F9B01AC0160E070E080E291E40E9442
:100A30002A209B01AC01C701B60129833A834B836D
:100A40005C830E94131F29813A814B815C810E9443
:100A5000741E87FD15C04AE050E0B80180E295E0C1
:100A60000F900F900F900F90DF91CF911F910F91EA
:100A7000FF90EF90DF90CF90BF90AF900C94EA1B67
:100A800081E0A81AB10860E380E295E00E942A1B89
:100A9000BECFCF93DF93EB01BC0180E295E00E94D3
:100AA000281BCE01DF91CF910C94CF04CF93C62F9A
:100AB000BC0180E295E00E94281B8C2FCF910C9402
:100AC000B60460E275E0892B19F085E391E002C07D
:100AD00080E391E00C94F21160E275E0892B19F04B
:100AE00088E291E002C080E291E00C94F211CF9391
:100AF000DF93EC0160E275E08E30910534F08EE119
:100B000091E00E94F2112E9704C08CE191E00E94C6
:100B1000F2114AE050E0BE0180E295E0DF91CF9112
:100B20000C94EA1BEF92FF920F931F93CF93DF93E6
:100B3000C0E0D0E08C2F0E94C7188C0160E275E005
:100B40008DE091E00E94F2114AE050E0BE0180E2A7
:100B500095E00E94EA1BCA30D1052CF460E280E2E5
:100B600095E00E942A1BCE010E9491040E946C0510
:100B700060E275E08AE091E00E94F211C8010E94F3
:100B80006105C330D10541F0CE0105978230910552
:100B900018F00497039730F460E275E085E091E087
:100BA0000E94F211CE010297029798F460E275E07C
:100BB0008FEF90E00E94F21161E070E0C230D10549
:100BC00011F460E070E04AE050E080E295E00E94BD
:100BD000EA1B80E295E00E94311B2196CE30D105C0
:100BE00009F0A8CFC0E0D0E08C2F0E94B3178C0191
:100BF0008C2F825F0E94C7187C0140E050E0BE014C
:100C000089E191E00E94ED0460E280E295E00E94BB
:100C10002A1BCE010E960E9491040E946C0560E290
:100C200075E08CEF90E00E94F211C7010E9461050F
:100C300043E050E0B80188E291E00E94ED0460E2F8
:100C400075E088EF90E00E94F211B801882777FDE7
:100C50008095982F0E94131F20E030EC4FE754E45A
:100C60000E94781E2091A1033091A2034091A3031A
:100C70005091A4030E94C71FAB01BC0122E030E0E9
:100C800080E295E00E94091D60E275E086EF90E049
:100C90000E94F21180E295E00E94311B2196C6303D
:100CA000D10509F0A1CFDF91CF911F910F91FF9056
:100CB000EF900895CF92DF92EF92FF920F931F93E0
:100CC000CF93DF93C0E0D0E08C2F0E94C7187C0147
:100CD0008E010770112701151105D9F460E275E046
:100CE00084EF90E00E94F2114AE050E0BE0180E201
:100CF00095E00E94EA1B60E275E081EF90E00E94BF
:100D0000F211CA30D1052CF460E280E295E00E9435
:100D10002A1BCE010E949104892B19F46CE271E028
:100D200002C06FE271E080E295E00E94281BEF288C
:100D300019F062E371E002C065E371E080E295E0E2
:100D40000E94281B0730110521F480E295E00E94E3
:100D5000311B2196CE30D10509F0B6CF6AE872E09A
:100D600080E295E00E94351BC0E0D0E08C2F0E940D
:100D7000B3177C018C2F825F0E94C7186C018E0113
:100D80000370112701151105C1F460E275E08FEEC3
:100D900090E00E94F2114AE050E0BE0180E295E04E
:100DA0000E94EA1B60E275E08CEE90E00E94F21176
:100DB00060E280E295E00E942A1BCE010E960E941E
:100DC0009104892B19F46CE271E002C06FE271E0CA
:100DD00080E295E00E94281BCD2819F068E371E0BD
:100DE00002C064E171E080E295E00E94281B43E0CC
:100DF00050E0B7018BE991E00E94ED0460E275E0FC
:100E00008AEE90E00E94F2110330110521F480E295
:100E100095E00E94311B2196C630D10509F0A6CF7E
:100E2000DF91CF911F910F91FF90EF90DF90CF90C6
:100E3000089580E295E00E94F018892BD1F380E2BA
:100E400095E00E94FB1808950E94190790ED980FF5
:100E500081E09A3008F080E008950E94190791E03F
:100E6000803209F090E0892F08950E9424078111B3
:100E700002C00C942D0781E00895CF9380E295E0A5
:100E80000E94F018892BD1F380E295E00E940919A5
:100E9000C82F682F80E295E00E942A1B8C2FCF91EB
:100EA00008950E943D07992787FD90950E94102282
:100EB00008950E942D07882319F00E943D07F9CF5D
:100EC00008950F931F93CF93DF930E94590780E2F9
:100ED00095E00E94F018892BD1F30E941907803306
:100EE00009F049C00E943D070E941907992787FD14
:100EF00090950E9410228236910581F188379105E4
:100F0000D1F50E943D07C0E0D0E00E941907992763
:100F100087FD90950E941022C0975CF40E941907EB
:100F2000992787FD90950E941022813691055CF4E7
:100F300057C00E941907992787FD90950E9410229B
:100F4000CA9764F1EBCF0E941907992787FD909506
:100F50000E941022873691050CF142C00E943D0785
:100F6000C0E0D0E00E941907803369F10E941907A0
:100F7000813349F135C00E942407882361F080E263
:100F800095E00E94C41DEB014AE050E080E295E04C
:100F90000E94EA1B25C0C0E0D0E022C08E01C4E060
:100FA000000F111FCA95E1F70E945107C82FDD27D6
:100FB000C7FDD0958A3314F4E09702C0C755D10914
:100FC000C00FD11FA2CFCC0FDD1F0E943D0721E033
:100FD00030E0813311F020E030E0C20FD31FC2CFE8
:100FE000CE01DF91CF911F910F910895CF93DF93A1
:100FF0000E9459070E942407811110C00E945107C6
:10100000813629F0C0E0D0E0843651F402C0CEE051
:10101000D0E00E942407811103C013C0C0E0D0E0DB
:101020000E946107C80FD91FC431D1056CF060E27E
:1010300075E08AE391E00E94F21180E295E00E945F
:10104000311B8FEF9FEF01C0CE01DF91CF9108954B
:101050000C942722E0919802F0919902E556F1094B
:10106000EF30F10538F4EE0FFF1FE759FE4F808196
:10107000918108958AE892E0089560E275E082E542
:1010800098E00E94F21180E295E00E94311B60E23C
:1010900075E087E398E00E94F21180E295E00E94FB
:1010A000311B60E275E082E298E00E94F21180E27A
:1010B00095E00E94311B60E275E08CEF97E00E94A2
:1010C000F21180E295E00E94311B60E275E08EEC47
:1010D00097E00E94F21180E295E00E94311B60E2ED
:1010E00075E086EB97E00E94F21180E295E00E94A5
:1010F000311B60E275E08DE997E00E94F21180E219
:1011000095E00E94311B60E275E08BE797E00E945A
:10111000F21180E295E00E94311B60E275E088E503
:1011200097E00E94F21180E295E00E94311B60E29C
:1011300075E080E397E00E94F21180E295E00E9462
:10114000311B60E275E08DE197E00E94F21180E2D0
:1011500095E00E94311B60E275E089EE96E00E9406
:10116000F21180E295E00E94311B60E275E08EECA6
:1011700096E00E94F21180E295E00E94311B60E24D
:1011800075E08AEB96E00E94F21180E295E00E9401
:10119000311B60E275E08AE796E00E94F21180E27E
:1011A00095E00E94311B60E275E085E596E00E94C3
:1011B000F21180E295E00E94311B60E275E081E26D
:1011C00096E00E94F21180E295E00E94311B60E2FD
:1011D00075E083E096E00E94F21180E295E00E94C3
:1011E000311B60E275E086EE95E00E94F21180E22C
:1011F00095E00E94311B60E275E08CEB95E00E9467
:10120000F21180E295E00E94311B60E275E081E915
:1012100095E00E94F21180E295E00E94311B60E2AD
:1012200075E08FE695E00E94F21180E295E00E9461
:10123000311B60E275E08EE495E00E94F21180E2DD
:1012400095E00E94311B60E275E08BE295E00E9420
:10125000F21180E295E00E94311B60E275E082E1CC
:1012600095E00E94F21180E295E00E94311B60E25D
:1012700075E088EE94E00E94F21180E295E00E9411
:10128000311B60E275E083ED94E00E94F21180E290
:1012900095E00E94311B60E275E081EB94E00E94D2
:1012A000F21180E295E00E94311B60E275E080EA75
:1012B00094E00E94F21180E295E00E94311B60E20E
:1012C00075E085E994E00E94F21180E295E00C94CB
:1012D000311B0F931F93CF93DF93EC01162F072F32
:1012E00061E00E945818612F8C2F0E94911880E2B3
:1012F00095E00E94311B60E275E083E894E00E9473
:10130000F211CE010E9477052A972CF460E280E268
:1013100095E00E942A1B60E275E080E894E00E945C
:10132000F211812F902F0E94610580E295E0DF91FC
:10133000CF911F910F910C94311BCF92DF92EF92BE
:10134000FF926B017C018EE480937C0062E070E090
:1013500080E090E00E94501780917A008064809332
:101360007A0080917A0086FDFCCF209178008091F0
:10137000790030E0382B442737FD4095542FC701C2
:10138000B6010E94D121CA01B901FF90EF90DF9010
:10139000CF90089588EC80937C0064E170E080E059
:1013A00090E00E94501780917A00806480937A00C8
:1013B00080917A0086FDFCCF8091780020917900A1
:1013C00030E0322F2227442737FD4095542F282B19
:1013D0002D57310941095109A3E3B4E00E94F021DE
:1013E0000895CF93DF9300D0CDB7DEB72091BD0530
:1013F0003091BE052115310511F421EC35E0CE0107
:101400000196821B930B0F900F90DF91CF9108955F
:1014100097FD0EC00E949104892B61F460E275E093
:101420008EE491E00E94F21180E295E00E94311B6F
:1014300080E0089581E00895E5EAF3E011921192C9
:1014400083E0ED3CF807D1F70895CF92DF92EF9259
:10145000FF928EE690E090939902809398028AE939
:1014600092E00E94381026E040E855E260E070E02B
:1014700080E295E00E94D31960E275E081E594E096
:101480000E94F21180E295E00E94311B60E275E05B
:1014900085E494E00E94F2114AE050E06EE070E0D2
:1014A00080E295E00E94EA1B60E275E082E394E04E
:1014B0000E94F2114AE050E066E070E080E295E0C0
:1014C0000E94EA1B60E275E084E294E00E94F2115F
:1014D00080E295E00E94311B60E275E085E194E0D6
:1014E0000E94F21122E030E040E95EE36AE771E435
:1014F00080E295E00E94091D60E275E081E194E0E0
:101500000E94F21180E295E00E94311B80E295E09A
:101510000E94311B64EB7BE281E190E00E949D0917
:101520000E94131F20E030E04AE754E40E94781E36
:101530006B017C0120E030E0A9010E94741E87FD50
:1015400009C0C092A103D092A203E092A303F0923B
:10155000A4030CC080E090E0A0EAB0E48093A10373
:101560009093A203A093A303B093A4030E941C0A28
:10157000FF90EF90DF90CF900C943D088EE993E0C0
:101580000E949F1580E692E090939B0280939A02BE
:101590000895AF92BF92CF92DF92EF92FF920F9396
:1015A0001F93CF93DF931F92CDB7DEB780E295E014
:1015B0000E94311B0E942A08BC0180E295E00E9433
:1015C000281B60E275E08EE094E00E94F21180E258
:1015D00095E00E944C1980E295E00E94F018892B5A
:1015E00009F50E9421176B017C0115EAA12E13E079
:1015F000B12E10E0F501219131915F011216130611
:101600006CF4442737FD4095542FC701B6010E9462
:10161000AF21622F6170812F0E9491181F5F1431DA
:1016200049F7D9CF0E945107873609F4D2C10CF08F
:101630004FC08E3309F45DC3BCF58F3209F409C382
:1016400064F5843209F4D4C18A3209F0B8C480E266
:1016500095E00E94311B60E275E081E094E00E9419
:10166000F21180E295E00E94311B80E295E00E9439
:10167000311B68EE73E080E090E00E945017E0E0DC
:10168000F0E00F90DF91CF911F910F91FF90EF90BD
:10169000DF90CF90BF90AF9009948A330CF46DC364
:1016A0008C3309F408C38BC48E3509F4EDC23CF4C5
:1016B0008F3309F447C08C3509F4D8C280C485360D
:1016C00009F44FC10CF0F7C0833609F4FAC177C4AE
:1016D000833709F482C2BCF48D3609F46FC154F427
:1016E000883681F1893609F06AC480E295E00E946B
:1016F000311B2EC3813709F41AC30CF04EC3803757
:1017000009F4F8C35CC4873709F460C32CF4853747
:1017100051F10CF443C078C0893709F4ADC30CF41F
:1017200064C38A3709F04BC480E295E00E94311B04
:1017300060E275E08FE691E00E94F2110E941C0ABF
:1017400010E0E9C380E295E00E94311B0F90DF9129
:10175000CF911F910F91FF90EF90DF90CF90BF90AE
:10176000AF900C943D0880E295E00E94311B0E94EE
:1017700021170E94111F20E030E04AE754E40E9444
:10178000781EAB01BC0122E030E080E295E00E94CF
:10179000091D60E275E088EF93E00CC080E295E0FF
:1017A0000E94311B0E94CA0977FF15C060E275E0F4
:1017B0008DED93E00E94F21180E295E00F90DF91B1
:1017C000CF911F910F91FF90EF90DF90CF90BF903E
:1017D000AF900C94311B882777FD8095982F0E943D
:1017E000131F20E030E04AE754E40E94781EAB016A
:1017F000BC0122E030E080E295E00E94091D60E239
:1018000075E08AED93E0D6CF80E295E00E94311B2F
:1018100064EB7BE281E190E00E949D090E94131F2E
:1018200020E030E04AE754E40E94781E6B017C011E
:101830006093A1037093A2038093A3039093A403E6
:1018400020E030E0A9010E94741E87FF17C060E20B
:1018500075E08FEB93E00E94F21180E295E00E9428
:10186000311B80E090E0A0EAB0E48093A103909364
:10187000A203A093A303B093A403A1C322E030E08A
:10188000B701A60180E295E00E94091D60E275E0C3
:101890008DE893E00E94F21122E030E045ED59E03E
:1018A00060E97FE380E295E00E94091D60E275E057
:1018B00084E793E07FCF80E295E00E94311B60E2F5
:1018C00075E08FE693E00E94F2110E94F1094AE070
:1018D00050E0BC0180E295E00E94EA1B60E275E006
:1018E0008AE693E00E94F2114AE050E06FEF78E060
:1018F00080E295E00E94EA1B60E275E08EE593E0ED
:101900000E94F21180E295E00E94311B60E275E0D6
:101910008EE493E00E94F2114AE050E06FEF73E032
:1019200080E295E00E94EA1B60E275E087E493E0C4
:101930000E94F21180E295E00E94311B60E275E0A6
:1019400088E393E00E94F2114AE050E06FEF7FE7F6
:1019500080E295E00E94EA1B60E275E081E393E09B
:1019600029CF80E295E00E94311B60E275E088E2B9
:1019700093E00E94F2114AE050E06FEF73E080E2E2
:1019800095E00E94EA1B60E275E084E093E00E942B
:10199000F21180E295E00E94311B00E010E060E06F
:1019A000C8010E9428080F5F1F4F0F3FF3E01F0779
:1019B000B1F760E275E08FEF92E0FCCE0E94510734
:1019C000182F80E295E00E94311B193609F0F7C20A
:1019D000BFC10E94F6077C010E945907C7010E94FF
:1019E000080AF7FCECC20E9424078111A0C2E7C2DA
:1019F00080E295E00E94311B60E275E08CE992E0A4
:101A00000E94F21180E295E00E94311B60E275E0D5
:101A100083E592E00E94F21180E295E00E94311B82
:101A200060E275E08EE392E00E94F21180E295E0C0
:101A30000E94311BE12CF12CC7010E9491046C0122
:101A40001E2D61E08E2D0E9458188E2D0E94C71801
:101A500061E0892B09F060E0812F0E94911860E21B
:101A600075E08CE392E00E94F211C7010E947705B5
:101A70006AEF70E080E090E00E945017812F0E9492
:101A8000C71861E0892B09F060E0812F0E9491184E
:101A900061E0CD2809F460E0812F0E945818C70149
:101AA00087709927079721F480E295E00E94311B07
:101AB0008FEFE81AF80AE4E1EE16F10409F0BCCF62
:101AC0007EC20E94F6077C010E945907C7010E944E
:101AD000080AF7FC47C00E9424078701000F111F66
:101AE000882351F10E9461070B551C4FF801918327
:101AF000808380E295E00E94311B60E275E08EE217
:101B000092E00E94F211C7010E94770560E275E041
:101B10008EE192E00E94F211F8016081718140E053
:101B200050E08AE892E00E94ED0460E275E08BE10B
:101B300092E00E94F21112C0F801EB55FC4F1182A5
:101B4000108280E295E00E94311B60E275E084E043
:101B500092E00E94F211C7010E94770580E295E0B1
:101B60000E94311B60E275E084EF91E00E94F21167
:101B700080E295E00E94311BA5EAEA2EA3E0FA2E4E
:101B800000E010E0F7018081918118161906E4F455
:101B9000C8010E94770560E275E08AEE91E00E943C
:101BA000F211F7016081718140E050E08AE892E033
:101BB0000E94ED0460E275E087EE91E00E94F21170
:101BC00080E295E00E94311B0F5F1F4FF2E0EF0EA5
:101BD000F11C04311105B1F6F2C10E94F6077C0137
:101BE0000E945907F7FCEBC10E942407882309F4DF
:101BF000E6C10E9461078C01C7010E94080AB70173
:101C00008EE993E00E943916B8018EE993E00E94B4
:101C1000721680E295E00E94311B60E275E08FEC65
:101C200091E00E94F211C7010E94770540E050E068
:101C3000B8018AE491E00E94ED0480E295E00E9400
:101C4000311B0E941907B7018EE993E00E943916F3
:101C5000AFC10E94F6078C0197FDB1C161E070E051
:101C60000E946909C8010E94080A0CC00E94F60778
:101C70008C0197FDA4C10E94080A60E070E0C801D1
:101C80000E946909F80195C10E94F6077C0197FD41
:101C900096C10E94080A60E070E0C7010E946909CD
:101CA00061E070E0C7010E94690960E070E0C7016F
:101CB0000E9469097DC180E295E00E94311B0E946B
:101CC000F6078C0197FD7BC160E00E94581880E206
:101CD00095E00E94311B60E275E08AEC91E00E9481
:101CE000F211C8010E94770560E275E08CEB91E08B
:101CF00061CD80E295E00E94311B0E94F6078C01C5
:101D000097FD5DC161E00E94581880E295E00E9455
:101D1000311B60E275E087EB91E00E94F211C8018F
:101D20000E94770560E275E088EA91E043CD80E2A9
:101D300095E00E94311B0F90DF91CF911F910F9181
:101D4000FF90EF90DF90CF90BF90AF900C945A0629
:101D500089E690E090939902809398028AE992E054
:101D60000F90DF91CF911F910F91FF90EF90DF9037
:101D7000CF90BF90AF900C943C10682F8AE992E00E
:101D80000F90DF91CF911F910F91FF90EF90DF9017
:101D9000CF90BF90AF900C94EC0F0E9459070E9417
:101DA0002407882309F40BC10E946107BC018AE95A
:101DB00092E00F90DF91CF911F910F91FF90EF90E4
:101DC000DF90CF90BF90AF900C94CC108AE992E056
:101DD0000F90DF91CF911F910F91FF90EF90DF90C7
:101DE000CF90BF90AF900C946E1105EA13E0FEEF18
:101DF000AF2EF3E0BF2EE12CF12CC7010E9491041D
:101E0000682F8E2D69830E94C718D82E6981C5015D
:101E10000E9428086D2DC50101970E942808F8012D
:101E20006181C50102970E942808F80160810E5F58
:101E30001F4FC50103970E942808FFEFEF1AFF0A02
:101E400084E0A81AB108E4E1EE16F104B1F680E2EC
:101E500095E00E94311B60E275E082E991E00F900D
:101E6000DF91CF911F910F91FF90EF90DF90CF9076
:101E7000BF90AF900C94F2110E941C0A05EA13E087
:101E8000F12CEEEFAE2EE3E0BE2EC5010E941F2224
:101E9000682FC501019769830E941F22E82EC501A2
:101EA00002970E941F22D82EC50103970E941F226D
:101EB0002D2D30E0322F2227282BF801219331934A
:101EC0008F0169818F2D0E9458186E2D8F2D0E94D1
:101ED0009118F4E0AF1AB108F39484E1F812D5CF69
:101EE00080E295E00E94311B60E275E089E791E0B5
:101EF0000E94F21180E295E00E94311B0F90DF9169
:101F0000CF911F910F91FF90EF90DF90CF90BF90F6
:101F1000AF900C94920560E0812F0E94581860E009
:101F2000812F0E9491181F5F1431A9F748C0F70153
:101F3000EE0FFF1FEB55FC4F11821082E3E0EE160F
:101F4000F10441F0C70105978230910518F004971C
:101F50000397E0F40E9461078C01BC018E2D0E9462
:101F6000D01780E295E00E94311B60E275E086EEBA
:101F700092E00E94F211C7010E94770540E050E014
:101F8000B8018AE491E00E94ED0416CC80E295E06D
:101F90000E94311B60E275E081EE92E00E94F21136
:101FA000C7010E94770560E275E084EC92E002CC04
:101FB000F701EE0FFF1FEB55FC4F118210820F90BF
:101FC000DF91CF911F910F91FF90EF90DF90CF9015
:101FD000BF90AF90089508950F931F93CF93DF9311
:101FE0008C01772767FD709560537109FC01EE5FE6
:101FF000FE4F808191816817790784F5E801D395B8
:10200000798368836AE872E080E295E00E94351B7C
:1020100067E871E080E295E00E94281B6881798181
:102020004AE050E080E295E00E94EA1BE881F981F5
:10203000F7FD08C03196EE0FFF1FE00FF11F608122
:10204000718102C06FEF7FEF8AE991E00E9449053C
:102050006DE971E080E295E00E94281B6AE872E079
:1020600080E295E0DF91CF911F910F910C94351B89
:1020700081E394E00C949812CF92DF92EF92FF925A
:102080000F931F93CF93DF937C016FE971E080E2A0
:1020900095E00E94351B68EB71E080E295E00E94BC
:1020A000351BE701CE5FDE4F1982188200E010E099
:1020B000B80181E394E00E94BC1281E394E00E94A5
:1020C000D11281110DC0888199810196FC01EE0F1A
:1020D000FF1FEE0DFF1D11830083998388830DC0C0
:1020E000843059F4B80181ED91E00E9449056AE815
:1020F00072E080E295E00E94351B0F5F1F4F0038B1
:102100001105B1F688819981892B39F46AEE71E065
:1021100080E295E00E94351B2FC06FEF71E080E2F6
:1021200095E00E94351B8701C12CD12C0E5F1F4FFB
:1021300088819981C816D906FCF44AE050E0B601BE
:1021400080E295E00E94EA1BF801608171818AE4D7
:1021500091E00E944905F8016081718182E192E07D
:102160000E9456056AE872E080E295E00E94351B05
:10217000FFEFCF1ADF0ADACFF701F3958881998153
:10218000019791838083DF91CF911F910F91FF90F1
:10219000EF90DF90CF900895EF92FF920F931F93EF
:1021A000CF93DF93EC018B0180E295E00E94311B1D
:1021B00066E172E080E295E00E94281B4AE050E070
:1021C000B80180E295E00E94EA1B61E272E080E2E1
:1021D00095E00E94281B7E01F394D701ED91FC91BC
:1021E000F7FD08C03196EE0FFF1FEC0FFD1F608159
:1021F000718102C06FEF7FEFA80181E394E00E943C
:10220000AF12082F10E069E272E080E295E00E94D0
:10221000281B4AE050E0B80180E295E00E94EA1BEA
:102220006FE272E080E295E00E94281BD701ED91F9
:10223000FC91F7FD08C03196EE0FFF1FEC0FFD1F5C
:102240008081918102C08FEF9FEF0E94CF046AE8E6
:1022500072E080E295E00E94351BC0E0D0E0C0173C
:10226000D10794F581E394E00E940112892BD1F308
:1022700081E394E00E940912F82EE92ECE010E941B
:10228000CF046AE471E080E295E00E94281B8F2D64
:102290000E94B60464E172E080E295E00E94281B8F
:1022A0008F2D9E2D0E94CF0464E172E080E295E0C4
:1022B0000E94281B4AE050E06F2D7E2D80E295E0C1
:1022C0000E94F21B2196CBCF81E394E0DF91CF9166
:1022D0001F910F91FF90EF900C94D112DF92EF922B
:1022E000FF920F931F93CF93DF93EC017C01F39444
:1022F000D701ED91FC91F7FD08C03196EE0FFF1F5D
:10230000EC0FFD1F6081718102C06FEF7FEF81E3F1
:1023100094E00E94BC1280E295E00E94311B6CE3C5
:1023200072E080E295E00E94281B00E010E00E942D
:102330003507882321F10E9459070E94240788232A
:10234000B1F30E946107D82E682F81E394E00E94C8
:1023500059126BE971E080E295E00E94281B4AE087
:1023600050E06D2D80E295E00E94171C63E472E05E
:1023700080E295E00E94281B0F5F1F4FD8CF81E3BA
:1023800094E00E94D11266E472E080E295E00E943F
:10239000281B4AE050E0B80180E295E00E94EA1B69
:1023A00061E572E080E295E00E94281BD701ED9183
:1023B000FC91F7FD08C03196EE0FFF1FEC0FFD1FDB
:1023C0008081918102C08FEF9FEF0E94CF0480E255
:1023D00095E0DF91CF911F910F91FF90EF90DF90EB
:1023E0000C94311BCF93DF93EB01BC018DEC93E098
:1023F0000E9418226DEC73E0CE01DF91CF910C9416
:10240000281B8091610490E020916204821B910955
:1024100008952091620480916104281750F4E22FFE
:10242000F0E0ED59FB4F808190E02F5F2093620434
:1024300008958FEF9FEF0895E09162048091610409
:10244000E81730F4F0E0ED59FB4F808190E00895FB
:102450008FEF9FEF08950895CF92DF92EF92FF9252
:102460000F931F93CF93DF937C01CB018A012091BF
:102470003D04222389F0EB016B01C40ED51ECC155F
:10248000DD0569F06991D701ED91FC910190F08132
:10249000E02DC7010995F3CF642F0E948D13C80169
:1024A000DF91CF911F910F91FF90EF90DF90CF9030
:1024B0000895CF93DF931F92CDB7DEB76983209144
:1024C0003D042223D1F020913E04203240F021E04F
:1024D00030E0FC013383228380E090E015C08091DE
:1024E0003F04E82FF0E0E05CFB4F998190838F5F21
:1024F00080933F0480933E0405C061E0CE010196C5
:102500000E948D1381E090E00F90DF91CF910895AC
:10251000FC011382128248EE53E060E070E04483D5
:102520005583668377838CE692E091838083089558
:10253000109262041092610410923F0410923E04C3
:102540000C94D812862F413208F040E263E674E022
:102550000E94F6121092620480936104089521E0B3
:102560000C94A21281E080933D0460936004109269
:102570003F0410923E0408950C94B2120F93062F5C
:1025800021E040913E0460E474E0809160040E9488
:102590003A1310923F0410923E0410923D040F91A2
:1025A000089561E00C94BE1281E394E00C948812CB
:1025B0001092F00481E08093EE041092ED0461E04B
:1025C00082E10E94911861E083E10E949118E9EB99
:1025D000F0E080818E7F808380818D7F808388E49E
:1025E0008093B80085E48093BC000895413208F0E0
:1025F0003FC09091F0049111FCCF91E09093F004D2
:102600002093EE042FEF209383041092C804240F2C
:102610002093C7049093EF049091EF04880F892BC7
:102620008093EF048091ED04813041F41092ED0429
:102630008091EF048093BB0085EC01C085EE809310
:10264000BC008091F0048130E1F38091C8048417CC
:1026500010F44091C80429EC34E0FB01D9018A2F21
:10266000821B841718F48D918193F9CF842F0895DC
:1026700080E008950F93413208F046C09091F00435
:102680009111FCCF92E09093F0040093EE049FEF41
:10269000909383041092C8044093C704FB0169EC33
:1026A00074E0DB019A2F961B941718F491919D9377
:1026B000F9CF1092EF049091EF04880F892B80934B
:1026C000EF048091ED04813041F41092ED0480918B
:1026D000EF048093BB0085EC01C085EE8093BC00C5
:1026E000222321F08091F0048230E1F38091830471
:1026F0008F3F61F080918304803251F08091830498
:10270000803341F483E007C081E005C080E003C06E
:1027100082E001C084E00F910895613298F4209125
:10272000F004243089F46093A504FC0187EA94E066
:10273000DC012A2F281B261718F421912D93F9CF9D
:1027400080E0089581E0089582E0089585ED80930A
:10275000BC008091BC0084FDFCCF1092F004089571
:1027600085EC8093BC001092F00408951F920F92A4
:102770000FB60F9211242F933F934F935F936F9354
:102780007F938F939F93AF93BF93EF93FF9380912A
:10279000B900887F803609F49CC068F5883209F456
:1027A0005BC090F4803109F454C038F4882309F4F4
:1027B000F5C0883009F44DC0F5C0883109F44CC02B
:1027C000803209F45DC0EEC0803409F468C048F47A
:1027D000803309F455C0883309F0E4C08093830442
:1027E000A8C0803509F44FC0883509F45DC088342D
:1027F00009F0D8C0D5C0883909F4C6C0A8F4883714
:1028000009F467C038F4883609F463C0803709F4E6
:1028100060C0C8C0883809F4B7C0803909F45FC007
:10282000803809F0BFC05BC0803B09F485C038F434
:10283000803A09F466C0883A09F47EC0B3C0803C8F
:1028400009F4A6C0883C09F4A3C0883B09F489C0F8
:10285000A9C08091EF0410C09091C8048091C70472
:10286000981770F5E091C80481E08E0F8093C8043A
:10287000F0E0E753FB4F80818093BB0085EC85C07F
:10288000809383048DC0E091C80481E08E0F809313
:10289000C8048091BB00F0E0E753FB4F8083909128
:1028A000C8048091C7046DC0E091C80481E08E0F18
:1028B0008093C8048091BB00F0E0E753FB4F808316
:1028C0008091EE0481116CC081E08093ED0484EA74
:1028D00060C083E08093F00410928404CFCF809195
:1028E0008404803208F050C0E091840481E08E0FAF
:1028F000809384048091BB00F0E0EB57FB4F808312
:10290000BDCF80918404803230F4E0918404F0E003
:10291000EB57FB4F10820E94A6136091840470E075
:10292000E091E904F091EA0485E894E009951092B9
:1029300084040E94B01336C084E08093F0041092A7
:10294000A6041092A504E091EB04F091EC04099523
:102950008091A504811105C081E08093A5041092A7
:10296000A704E091A60481E08E0F8093A604F0E016
:10297000E955FB4F80818093BB009091A604809124
:10298000A504981708F47ACF85E88093BC000AC0A4
:1029900085EC8093BC001092F00404C01092830474
:1029A0000E94A613FF91EF91BF91AF919F918F91DC
:1029B0007F916F915F914F913F912F910F900FBE3B
:1029C0000F901F9018951F920F920FB60F9211241F
:1029D0002F933F934F935F936F937F938F939F9327
:1029E000AF93BF93EF93FF938091F20487FF05C0ED
:1029F00010928500109284001AC02091F2043327AF
:102A000027FD30958091F10490E0281739077CF478
:102A10008091F204992787FD9095FC01EE0FFF1F2E
:102A2000E80FF91FED50FB4F808186FD15C08091A6
:102A3000F2048F5F8093F2042091F204332727FD84
:102A400030958091F10490E028173907BCF480910B
:102A5000F2048C305CF112C08091F204992787FD5A
:102A60009095FC01EE0FFF1FE80FF91FED50FB4F93
:102A7000808160E08F730E949118D9CF809184008B
:102A800090918500049680349C4918F480E49CE978
:102A900005C08091840090918500049690938900F0
:102AA000809388008FEF8093F20438C020918400D7
:102AB000309185008091F204992787FD9095FC0163
:102AC000EE0FFF1FE80FF91FED50FB4F8181928140
:102AD000820F931F90938900809388008091F20465
:102AE000992787FD9095FC01EE0FFF1FE80FF91F56
:102AF000ED50FB4F808186FF11C08091F204992731
:102B000087FD9095FC01EE0FFF1FE80FF91FED50B8
:102B1000FB4F808161E08F730E949118FF91EF91CC
:102B2000BF91AF919F918F917F916F915F914F91E5
:102B30003F912F910F900FBE0F901F9018952091ED
:102B4000F1042C30A0F431E0320F3093F104FC0199
:102B50002083822F90E0FC01EE0FFF1FE80FF91F8A
:102B6000ED50FB4F88EB9BE09283818308952FEF1C
:102B7000FC0120830895DF92EF92FF920F931F9341
:102B8000CF93DF93EC01D62E7A01890188818C30B6
:102B900008F066C061E08D2D0E9458188881A82F2A
:102BA000B0E0FD01EE0FFF1FEA0FFB1FED50FB4FE2
:102BB0002D2D2F739081907C922B908360E272E098
:102BC0006E197F0977FF02C06D5F7F4F759567951E
:102BD00075956795698340E659E0401B510B57FF97
:102BE00002C04D5F5F4F55954795559547954A8370
:102BF0006CE00E94A3219CE0899FB001112420E099
:102C000030E0A901460F571FFA01EE0FFF1FE40F36
:102C1000F51FED50FB4F908196FD16C02F5F3F4F83
:102C20002C30310571F781110FC01092800082E0C5
:102C3000809381001092850010928400B19A809157
:102C40006F00826080936F00888190E0FC01EE0F3E
:102C5000FF1FE80FF91FED50FB4F808180648083D8
:102C60008881DF91CF911F910F91FF90EF90DF90BE
:102C7000089520E639E040E252E00C94BB15FC01D7
:102C800080818C3070F5918128E830E0291B310972
:102C900097FD3395220F331F220F331F62177307DF
:102CA0007CF0928128E532E0291B310997FD3395AC
:102CB000220F331F220F331F621773070CF49B017F
:102CC00022503109220F331F4FB7F89490E0FC01D6
:102CD000EE0FFF1FE80FF91FED50FB4F32832183EA
:102CE0004FBF08954F925F926F927F92AF92BF92C3
:102CF000CF92DF92EF92FF920F931F93CF93DF93C8
:102D0000EC01603282E078070CF040C077FD06C02D
:102D1000653B71052CF064EB70E002C060E070E090
:102D2000898128E830E0281B310987FD3395220F7F
:102D3000331F220F331F5901CC24B7FCC094DC2C65
:102D4000882777FD8095982F2A8148E552E0421B1D
:102D5000510927FD5395440F551F440F551F2A0154
:102D6000662457FC6094762C7F926F925F924F920C
:102D700014EBE12EF12C00E010E020E030E0A9019E
:102D80000E94C71D0F900F900F900F90CE01DF9102
:102D9000CF911F910F91FF90EF90DF90CF90BF9058
:102DA000AF907F906F905F904F900C943F161F9262
:102DB0000F920FB60F9211242F933F938F939F93EF
:102DC000AF93BF938091180590911905A0911A05B2
:102DD000B0911B053091170523E0230F2D3720F408
:102DE0000196A11DB11D05C026E8230F0296A11D65
:102DF000B11D209317058093180590931905A09392
:102E00001A05B0931B0580911C0590911D05A0919A
:102E10001E05B0911F050196A11DB11D80931C05D3
:102E200090931D05A0931E05B0931F05BF91AF9110
:102E30009F918F913F912F910F900FBE0F901F90F8
:102E400018952FB7F8946091180570911905809125
:102E50001A0590911B052FBF08953FB7F8948091F4
:102E60001C0590911D05A0911E05B0911F0526B56A
:102E7000A89B05C02F3F19F00196A11DB11D3FBFB2
:102E80006627782F892F9A2F620F711D811D911D42
:102E900042E0660F771F881F991F4A95D1F7089562
:102EA000CF92DF92EF92FF92CF93DF936B017C0181
:102EB0000E942D17EB01C114D104E104F10489F043
:102EC0000E940E1E0E942D176C1B7D0B683E7340E6
:102ED00090F381E0C81AD108E108F108C851DC4F2D
:102EE000EACFDF91CF91FF90EF90DF90CF900895E0
:102EF000789484B5826084BD84B5816084BD85B5D5
:102F0000826085BD85B5816085BDEEE6F0E080819B
:102F100081608083E1E8F0E01082808182608083BC
:102F2000808181608083E0E8F0E08081816080833F
:102F3000E1EBF0E0808184608083E0EBF0E0808171
:102F400081608083EAE7F0E0808184608083808113
:102F500082608083808181608083808180688083BB
:102F60001092C10008958E3008F08E508770209125
:102F70000A0190E4299F90011124822B80937C0008
:102F800080917A00806480937A0080917A0086FD37
:102F9000FCCF809178002091790090E0922B0895E9
:102FA0001F93CF93DF93182FEB0161E00E94581815
:102FB000209711F460E004C0CF3FD10539F461E0FF
:102FC000812FDF91CF911F910C949118E12FF0E0A8
:102FD000E359F74FE491E330F9F048F4E130B9F008
:102FE000E230A1F584B5806284BDC8BD34C0E7304D
:102FF000E9F0E83019F1E43049F580918000806211
:1030000080938000D0938B00C0938A0024C084B545
:10301000806884BDC7BD1FC0809180008068809398
:103020008000D0938900C093880015C08091B000C3
:1030300080688093B000C093B3000DC08091B00051
:1030400080628093B000C093B40005C0C038D10541
:103050000CF0B5CFAFCFDF91CF911F9108958330A2
:1030600081F028F4813099F08230A1F00895873002
:10307000A9F08830B9F08430D1F4809180008F7D40
:1030800003C0809180008F7780938000089584B57D
:103090008F7702C084B58F7D84BD08958091B00084
:1030A0008F7703C08091B0008F7D8093B00008952A
:1030B000CF93DF9390E0FC01EF57F74F2491FC0191
:1030C000EB56F74F8491882349F190E0880F991FC0
:1030D000FC01E354F74FA591B4918D54974FFC0137
:1030E000C591D4919FB7611108C0F8948C91209537
:1030F00082238C93888182230AC0623051F4F89431
:103100008C91322F309583238C938881822B8883F6
:1031100004C0F8948C91822B8C939FBFDF91CF9148
:1031200008950F931F93CF93DF931F92CDB7DEB710
:10313000282F30E0F901E359F74F8491F901EF5757
:10314000F74F1491F901EB56F74F04910023C9F0A2
:10315000882321F069830E942F186981E02FF0E015
:10316000EE0FFF1FED54F74FA591B4919FB7F89460
:103170008C91611103C01095812301C0812B8C9328
:103180009FBF0F90DF91CF911F910F910895CF9323
:10319000DF93282F30E0F901E359F74F8491F901CB
:1031A000EF57F74FD491F901EB56F74FC491CC2369
:1031B00091F081110E942F18EC2FF0E0EE0FFF1F0D
:1031C000E755F74FA591B4912C912D2381E090E024
:1031D00021F480E002C080E090E0DF91CF9108957B
:1031E000FC01818D228D90E0805C9F4F821B9109B4
:1031F0008F7399270895FC01918D828D981731F076
:10320000828DE80FF11D858D90E008958FEF9FEF7F
:103210000895FC01918D828D981761F0828DDF01F8
:10322000A80FB11D5D968C91928D9F5F9F73928FB9
:1032300090E008958FEF9FEF08958DE89AE1892B34
:1032400049F080E090E0892B29F00E948D1A8111CD
:103250000C9400000895FC01848DDF01A80FB11DBE
:10326000A35ABF4F2C91848D90E001968F739927BC
:10327000848FA689B7892C93A089B1898C918064A9
:103280008C93938D848D981306C00288F389E02D6A
:1032900080818F7D80830895CF93DF93EC01888DAB
:1032A0008823C9F0EA89FB89808185FD05C0A8894A
:1032B000B9898C9186FD0FC00FB607FCF5CF8081D0
:1032C00085FFF2CFA889B9898C9185FFEDCFCE011A
:1032D0000E942B19E7CFDF91CF910895CF92DF9213
:1032E000FF920F931F93CF93DF931F92CDB7DEB75B
:1032F0006C0181E0D60158968C9358975B969C910F
:103300005B975C968C915C97981307C05096ED91F3
:10331000FC915197808185FD2EC0F601038D10E050
:103320000F5F1F4F0F731127F02EF601848DF812D7
:1033300011C00FB607FCF9CFD6015096ED91FC9164
:103340005197808185FFF1CFC60169830E942B19B7
:103350006981EBCF838DE80FF11DE35AFF4F608346
:10336000D6015B960C935B975296ED91FC91539727
:10337000808180620CC0D6015696ED91FC915797E2
:1033800060835096ED91FC91519780818064808399
:1033900081E090E00F90DF91CF911F910F91FF900E
:1033A000DF90CF900895BF92CF92DF92EF92FF927D
:1033B000CF93DF93EC016A017B01B22EE889F98992
:1033C00082E08083411581EE580761057105A1F007
:1033D00060E079E08DE390E0A70196010E94AF21C3
:1033E000215031094109510956954795379527953F
:1033F000211580E1380798F0E889F989108260E8A2
:1034000074E88EE190E0A70196010E94AF2121505F
:103410003109410951095695479537952795EC850E
:10342000FD853083EE85FF852083188EEC89FD892C
:10343000B082EA89FB89808180618083EA89FB8987
:10344000808188608083EA89FB89808180688083AD
:10345000EA89FB8980818F7D8083DF91CF91FF9006
:10346000EF90DF90CF90BF9008951F920F920FB60C
:103470000F9211242F938F939F93EF93FF93E091DB
:103480003005F09131058081E0913605F0913705E6
:1034900082FD12C09081809139058F5F8F732091DA
:1034A0003A05821751F0E0913905F0E0E05EFA4FFD
:1034B000958F8093390501C08081FF91EF919F9195
:1034C0008F912F910F900FBE0F901F9018951F9204
:1034D0000F920FB60F9211242F933F934F935F9348
:1034E0006F937F938F939F93AF93BF93EF93FF93CC
:1034F00080E295E00E942B19FF91EF91BF91AF916F
:103500009F918F917F916F915F914F913F912F91FB
:103510000F900FBE0F901F90189580E295E00E94CB
:10352000F01821E0892B09F420E0822F08951092F1
:1035300023051092220588EE93E0A0E0B0E080938E
:10354000240590932505A0932605B09327058CE7C5
:1035500092E0909321058093200585EC90E0909374
:103560002D0580932C0584EC90E090932F0580939B
:103570002E0580EC90E0909331058093300581EC2E
:1035800090E0909333058093320582EC90E0909325
:1035900035058093340586EC90E090933705809351
:1035A00036051092390510923A0510923B0510929B
:1035B0003C05089508950E9478170E94DA1A0E9427
:1035C000250ACDE1D9E10E94C90A2097E1F30E94C2
:1035D0001D19F9CFCF92DF92EF92FF920F931F93B5
:1035E000CF93DF936C017A01EB01E60EF71E00E04A
:1035F00010E0CE15DF0561F06991D601ED91FC91E7
:103600000190F081E02DC6010995080F191FF1CF37
:10361000C801DF91CF911F910F91FF90EF90DF9044
:10362000CF9008956115710581F0DB010D900020A8
:10363000E9F7AD0141505109461B570BDC01ED91F3
:10364000FC910280F381E02D099480E090E00895E0
:103650000C94121BDC01ED91FC910190F081E02DA6
:10366000099468E872E00C94121B0F931F93CF9398
:10367000DF93EC010E94121B8C01CE010E94311BD2
:10368000800F911FDF91CF911F910F9108958F921D
:103690009F92AF92BF92CF92DF92EF92FF920F93E1
:1036A0001F93CF93DF93CDB7DEB7A1970FB6F894F2
:1036B000DEBF0FBECDBF7C01C42EE52FCB01D22EC5
:1036C00019A221E02D1510F02AE0D22E8E010F5DF7
:1036D0001F4F8D2C912CA12CB12C6C2D7E2FA50170
:1036E00094010E94AF218C2DD29E8019112401508B
:1036F00011098A3014F4805D01C0895CF80180836F
:10370000211531054105510521F0C22EE32FCA01D3
:10371000E4CFB801C7010E94121BA1960FB6F8941E
:10372000DEBF0FBECDBFDF91CF911F910F91FF90F4
:10373000EF90DF90CF90BF90AF909F908F900895C3
:10374000CF92DF92EF92FF920F931F93CF93DF936D
:10375000EC016A017B012115310579F4E881F981D9
:103760000190F081E02D642FDF91CF911F910F9197
:10377000FF90EF90DF90CF9009942A303105E9F463
:1037800077FF1AC06DE20E942A1B8C01442755273F
:10379000BA014C195D096E097F092AE0CE010E9429
:1037A000471B800F911FDF91CF911F910F91FF90C9
:1037B000EF90DF90CF9008952AE0B701A601CE01E7
:1037C000DF91CF911F910F91FF90EF90DF90CF90FD
:1037D0000C94471B9A01AB01662757FD6095762F25
:1037E0000C94A01B0F931F93CF93DF93EC019A01CE
:1037F000AB01662757FD6095762F0E94A01B8C01B8
:10380000CE010E94311B800F911FDF91CF911F913C
:103810000F9108952115310541F4DC01ED91FC91E2
:103820000190F081E02D642F09940C94471B9A01BC
:10383000462F50E060E070E00C940A1C4F925F92BB
:103840006F927F928F929F92AF92BF92CF92DF92B0
:10385000EF92FF920F931F93CF93DF93EC016A01D6
:103860007B01B22E9A01AB01C701B6010E947620FE
:10387000882319F06BE872E027C026013701E8942D
:1038800077F82FEF3FEF4FE75FE7C301B2010E94E8
:10389000762081110DC02FEF3FEF4FE75FE7C301A7
:1038A000B2010E94741E18161CF46FE872E00CC07E
:1038B0002FEF3FEF4FE75FE4C701B6010E94C31F40
:1038C0001816ACF463E972E0CE01DF91CF911F913D
:1038D0000F91FF90EF90DF90CF90BF90AF909F90AF
:1038E0008F907F906F905F904F900C94121B2FEFF2
:1038F0003FEF4FE75FECC701B6010E94741E87FDE2
:10390000E1CF20E030E0A901C701B6010E94741E9A
:1039100087FF0AC06DE2CE010E942A1B8C01F7FAD4
:10392000F094F7F8F09402C000E010E0A12C60E001
:1039300070E080E09FE3AB1441F020E030E040E233
:1039400051E40E94781EA394F6CF9B01AC01C701FD
:10395000B6010E94101E6B017C010E94E51E2B0126
:103960003C010E94111F9B01AC01C701B6010E94DE
:103970000F1E6B017C012AE0B301A201CE010E945F
:10398000471B080F191FBB2039F066EB71E0CE0111
:103990000E94121B080F191F7B2C772041F120E099
:1039A00030E040E251E4C701B6010E94C71F6B013D
:1039B0007C010E94E01E4B01AA2497FCA094BA2C23
:1039C0002AE030E0B501A401CE010E94A01B080F3F
:1039D000191FC501B4010E94131F9B01AC01C7014F
:1039E000B6010E940F1E6B017C017A94D6CFC801EC
:1039F000DF91CF911F910F91FF90EF90DF90CF90CB
:103A0000BF90AF909F908F907F906F905F904F90FE
:103A100008950C941E1C0F931F93CF93DF93EC011A
:103A20000E942117688779878A879B87E881F981B7
:103A30000084F185E02DCE01099597FF15C00E9405
:103A40002117088519852A853B85601B710B820B20
:103A5000930B0C811D812E813F81601771078207B6
:103A6000930720F38FEF9FEFDF91CF911F910F917D
:103A70000895CF93DF93EC01CE010E940B1D97FDBB
:103A800011C08D32910571F09C01205331092A300B
:103A9000310540F0E881F9810680F781E02DCE0103
:103AA0000995EACFDF91CF910895CF92DF92FF92EF
:103AB0000F931F93CF93DF9300D000D0CDB7DEB725
:103AC0006C01062F0E94391DFC0197FD4BC020E0C0
:103AD00030E0A901F12C112707FD1095E017F1073F
:103AE000E9F0ED32F105C1F0CF01C0970A97B0F4CB
:103AF000AAE0B0E00E94F0219B01AC01CF01AA270F
:103B000097FDA095BA2F280F391F4A1F5B1F20531E
:103B100031094109510902C0FF24F394D601ED9106
:103B2000FC910680F781E02DC60129833A834B83FF
:103B30005C830995C6010E940B1DFC01C097298179
:103B40003A814B815C810A9748F2E017F10731F224
:103B5000FF2061F066277727CB01621B730B840B74
:103B6000950B06C060E070E0CB0102C0CA01B9014C
:103B70000F900F900F900F90DF91CF911F910F91A9
:103B8000FF90DF90CF90089561E00C94551D4F9207
:103B90005F926F927F92AF92BF92CF92DF92EF923D
:103BA000FF920F931F93CF93DF93CDB7DEB7290119
:103BB0003A01621B730B840B950B29893A894B8957
:103BC0005C892A193B094C095D09298B3A8B4B8B7F
:103BD0005C8B9B01AC0169897A898B899C890E94E5
:103BE0009321E418F50806091709A80197010E9416
:103BF000D1212A0D3B1D4C1D5D1DCA01B901DF916C
:103C0000CF911F910F91FF90EF90DF90CF90BF90D9
:103C1000AF907F906F905F904F90089508955058A7
:103C2000BB27AA270ED075C166D130F06BD120F02A
:103C300031F49F3F11F41EF45BC10EF4E095E7FBF5
:103C400051C1E92F77D180F3BA1762077307840750
:103C5000950718F071F49EF58FC10EF4E0950B2EC8
:103C6000BA2FA02D0B01B90190010C01CA01A001CE
:103C70001124FF27591B99F0593F50F4503E68F129
:103C80001A16F040A22F232F342F4427585FF3CF6A
:103C9000469537952795A795F0405395C9F77EF43B
:103CA0001F16BA0B620B730B840BBAF09150A1F084
:103CB000FF0FBB1F661F771F881FC2F70EC0BA0F0A
:103CC000621F731F841F48F4879577956795B79592
:103CD000F7959E3F08F0B3CF9395880F08F099278A
:103CE000EE0F979587950895D9D008F481E008954F
:103CF0000CD00FC107D140F0FED030F021F45F3F6F
:103D000019F0F0C0511139C1F3C014D198F39923BF
:103D1000C9F35523B1F3951B550BBB27AA2762178F
:103D20007307840738F09F5F5F4F220F331F441FD4
:103D3000AA1FA9F333D00E2E3AF0E0E830D091500C
:103D40005040E695001CCAF729D0FE2F27D0660FF9
:103D5000771F881FBB1F261737074807AB07B0E838
:103D600009F0BB0B802DBF01FF2793585F4F2AF04E
:103D70009E3F510568F0B6C000C15F3FECF3983E2E
:103D8000DCF3869577956795B795F7959F5FC9F7AB
:103D9000880F911D9695879597F90895E1E0660F34
:103DA000771F881FBB1F621773078407BA0720F0AD
:103DB000621B730B840BBA0BEE1F88F7E095089516
:103DC00004D06894B111D9C00895BCD088F09F5731
:103DD00090F0B92F9927B751A0F0D1F0660F771F57
:103DE000881F991F1AF0BA95C9F712C0B13081F037
:103DF000C3D0B1E00895C0C0672F782F8827B85F7F
:103E000039F0B93FCCF3869577956795B395D9F797
:103E10003EF490958095709561957F4F8F4F9F4FA1
:103E20000895E89409C097FB3EF4909580957095AD
:103E300061957F4F8F4F9F4F9923A9F0F92F96E9F6
:103E4000BB279395F695879577956795B795F1116B
:103E5000F8CFFAF4BB0F11F460FF1BC06F5F7F4F08
:103E60008F4F9F4F16C0882311F096E911C077231A
:103E700021F09EE8872F762F05C0662371F096E823
:103E8000862F70E060E02AF09A95660F771F881FF2
:103E9000DAF7880F9695879597F90895990F000896
:103EA000550FAA0BE0E8FEEF16161706E807F9070C
:103EB000C0F012161306E407F50798F0621B730BA7
:103EC000840B950B39F40A2661F0232B242B252B28
:103ED00021F408950A2609F4A140A6958FEF811DCB
:103EE000811D089597F99F6780E870E060E008956C
:103EF0009FEF80EC089500240A9416161706180602
:103F00000906089500240A941216130614060506DD
:103F10000895092E0394000C11F4882352F0BB0F6E
:103F200040F4BF2B11F460FF04C06F5F7F4F8F4FD1
:103F30009F4F089557FD9058440F551F59F05F3F0C
:103F400071F04795880F97FB991F61F09F3F79F0BB
:103F500087950895121613061406551FF2CF46953D
:103F6000F1DF08C0161617061806991FF1CF8695BF
:103F70007105610508940895E894BB2766277727A3
:103F8000CB0197F908958ADF08F48FEF08950BD0DD
:103F9000C0CFB1DF28F0B6DF18F0952309F0A2CF2B
:103FA000A7CF1124EACFC6DFA0F3959FD1F3950FD9
:103FB00050E0551F629FF001729FBB27F00DB11DAD
:103FC000639FAA27F00DB11DAA1F649F6627B00D3D
:103FD000A11D661F829F2227B00DA11D621F739F26
:103FE000B00DA11D621F839FA00D611D221F749F34
:103FF0003327A00D611D231F849F600D211D822F7B
:10400000762F6A2F11249F5750408AF0E1F08823C1
:104010004AF0EE0FFF1FBB1F661F771F881F9150CE
:104020005040A9F79E3F510570F05CCFA6CF5F3F8F
:10403000ECF3983EDCF3869577956795B795F79501
:10404000E7959F5FC1F7FE2B880F911D9695879589
:1040500097F90895FA01EE0FFF1F309621053105FB
:1040600099F16115710561F48038BFE39B0749F14F
:1040700068949038810561F08038BFEF9B0741F06C
:10408000992342F5FF3FE1053105210511F1E8943F
:104090000894E795D901AA2329F4AB2FBE2FF85F26
:1040A000D0F310C0FF5F70F4A695E0F7F73950F039
:1040B00019F0FF3A38F49F779F930CD00F9007FCCC
:1040C000905808953EF014CF60E070E080E89FE3E0
:1040D00008954FE79F775F934F933F932F93A2D01D
:1040E0002F913F914F915F9152DF09C0D7DE880B2E
:1040F000990B089519F40EF0F5CE3ECFF9CE22DFDC
:10410000C8F39638C0F707F80F92E8942BE33AEA21
:1041100048EB5FE74ADF0F920F920F924DB75EB701
:104120000F92C0D0E8E6F0E016D04F915F91EF918A
:10413000FF91E595EE1FFF1F49F0FE57E068442709
:10414000EE0F441FFA95E1F74195550B32D00F90D1
:1041500007FE26C00895DF93CF931F930F93FF921E
:10416000EF92DF927B018C01689405C0DA2EEF019B
:104170001ADFFE01E894A59125913591459155915D
:10418000AEF3EF015EDDFE019701A801DA9479F745
:10419000DF90EF90FF900F911F91CF91DF910895E5
:1041A0009B01AC0160E070E080E89FE3A1CD9ACE76
:1041B000ACC0C8DEE8F39923D9F3940F511DBBF3CB
:1041C0009150504094F059F0882332F0660F771FD9
:1041D000881F91505040C1F79E3F510544F7880F0A
:1041E000911D9695879597F908955F3FACF0983E9D
:1041F0009CF0BB27869577956795B79508F4B160D5
:104200009395C1F7BB0F58F711F460FFE8CF6F5FCC
:104210007F4F8F4F9F4FE3CFB0CE0EF076C068CE6A
:10422000689460CE8FDEC8F39923D1F3C6F3DF9391
:10423000CF931F930F93FF92C92FDD2788232AF076
:104240002197660F771F881FDAF720E030E040E8FB
:104250005FEB9FE3883920F0803E30F021968F7726
:10426000DFDCE0E9F0E003C0DBDCEDEBF0E073DF86
:104270008B01BE01EC01FB2E6F5771097595771FFD
:10428000880B990BD0DD28E132E741E35FE38BDE59
:10429000AF2D9801AE01FF900F911F91CF91DF914B
:1042A000D0DC37CEFA01DC01AA0FBB1F9B01AC01A9
:1042B000BF5728F422273327442750781FC0B7510F
:1042C00088F4AB2F0024469537952795011CA395BC
:1042D000D2F3002069F0220F331F441FB395DAF3A5
:1042E0000DD09DCC61307105A0E88A07B94630F445
:1042F0009B01AC016627772788279078309621F0BC
:10430000208331834283538308959F3F31F091503E
:1043100020F4879577956795B795880F911D9695A9
:10432000879597F90895DB018F939F930E94F02161
:10433000BF91AF91A29F800D911DA39F900DB29F41
:10434000900D11240895991B79E004C0991F9617C8
:1043500008F0961B881F7A95C9F780950895A1E209
:104360001A2EAA1BBB1BFD010DC0AA1FBB1FEE1FEF
:10437000FF1FA217B307E407F50720F0A21BB30B3A
:10438000E40BF50B661F771F881F991F1A9469F7B6
:1043900060957095809590959B01AC01BD01CF0112
:1043A0000895052E97FB1EF400940E94E82157FD06
:1043B00007D00E94AF2107FC03D04EF40C94E821F3
:1043C00050954095309521953F4F4F4F5F4F089541
:1043D00090958095709561957F4F8F4F9F4F089571
:1043E0000E940122A59F900DB49F900DA49F800D67
:1043F000911D11240895EE0FFF1F0590F491E02DFB
:104400000994A29FB001B39FC001A39F700D811DAD
:104410001124911DB29F700D811D1124911D0895CD
:104420009111089581548A5108F4805E855A089547
:10443000FB01DC0105900D920020E1F70895F99948
:10444000FECF92BD81BDF89A992780B50895262F99
:10445000F999FECF1FBA92BD81BD20BD0FB6F89469
:0E446000FA9AF99A0FBE01960895F894FFCFCC
:10446E000000C10580000100000001306200303004
:10447E00302C0030300030780056616C7565206F3E
:10448E006E2070696E204100202F2000203C0020FD
:10449E003E003120003020003100303132333435CF
:1044AE00363738394142434445463A200045455057
:1044BE00524F4D00466C61736800493243004D65A2
:1044CE006D6F727900535049004D0154018A028A72
:1044DE00025A018A028A028A025E018A028A028ACC
:1044EE00028A028A02650144657669636520636803
:1044FE00616E67656420746F2000202800290053C8
:10450E004541524348494E4720493243204445567F
:10451E00494345532E2E2E003D3D3D3D3D3D3D3DF7
:10452E003D3D3D3D3D3D3D3D3D3D3D3D3D3D3D3DAD
:10453E0000556E6B6E6F77206572726F72206174AC
:10454E00206164647265737320004E6F204932439C
:10455E00206465766963657320666F756E640049C5
:10456E003243206465766963657320666F756E6489
:10457E003A00202D200052657175657374656420B4
:10458E0000206279746573200020676F742000200C
:10459E0062797465732066726F6D200057726F7446
:1045AE00652000292C0020746F74616C206F6620CA
:1045BE000020627974657320746F20000000000083
:1045CE00EB0FEC0FCC106E110000000059122C12E4
:1045DE00011209121C122B12000000006E19EA1AA9
:1045EE00F0180919FB184C190D0A006E616E00695E
:0845FE006E66006F7666000096
:00000001FF
